:10080000E4F590F5A0F5B07F381208F97F0C1208D6
:10081000F97F101208F97F011208F97F061208F912
:100820007F801208F97FC01208F9D292D291D2903B
:10083000C296C295C294C29320900312085120918F
:10084000031208842092031208B77F0C1208F98063
:01085000D9CE
:10085100D296D295D294D293C292C291C290209351
:10086100057F311209072094057F3412090720956D
:10087100057F371209072096057F2A1209077F0C89
:030881000208F971
:10088400D296D295D294D293C292C291C29020931E
:10089400057F321209072094057F35120907209538
:1008A400057F381209072096057F301209077F0C4F
:0308B4000208F93E
:1008B700D296D295D294D293C292C291C2902093EB
:1008C700057F331209072094057F36120907209503
:1008D700057F391209072096057F231209077F0C28
:0308E7000208F90B
:0E08F9008FB0C2A0C2A1D2A21208EAC2A222EF
:0E0907008FB0D2A0C2A1D2A21208EAC2A222D0
:0E08EA00E4FFFE0FBF00010EBE4EF8BF20F56A
:0108F80022DD
:03000000020915DD
:0C091500787FE4F6D8FD75810702080029
:00000001FF
