:100A6C003F065B4F666D7D077F6F3F065B4F666D84
:040A7C000000000076
:100A1300E4F590F5A0F5B075A01475B01112094B6B
:100A230075A0221209AF75A04112094B75A021755B
:100A3300B0121209AF75A01175B01412094B75B03D
:100A4300221209AF75B04112094B75B02175A0127E
:050A53001209AF80C292
:10094B0078087C007D007BFF7A0A796C7E007F0A39
:10095B001208D0E4F512F513F514F515F512F5138D
:10096B00AE12AF137C007D0A1208F68C148D15D2D3
:10097B0080C28174082515120A59AE12AF137C0080
:10098B007D0A1208F68E148F15C280D2817408125C
:10099B000A580513E51370020512C39415E512945A
:0309AB000040BD4C
:0109AE002226
:1009AF0078087C007D007BFF7A0A79767E007F0ACB
:1009BF001208D0E4F512F513F514F515F512F51329
:1009CF00AE12AF137C007D0A1208F68C148D15D26F
:1009DF0080C28174082515120A59AE12AF137C001C
:1009EF007D0A1208F68E148F15C280D281740812F8
:1009FF000A580513E51370020512C39406E5129405
:030A0F000040BDE7
:010A120022C1
:050A58002FF8E6F59007
:0E0A5D00E4FFFE0FBF00010EBE75F8BF30F5BE
:010A6B002268
:03000000020A8071
:0C0A8000787FE4F6D8FD758115020A139A
:10080000E709F608DFFA8046E709F208DFFA803EDA
:1008100088828C83E709F0A3DFFA8032E309F608C7
:10082000DFFA8078E309F208DFFA807088828C832F
:10083000E309F0A3DFFA806489828A83E0A3F608E3
:10084000DFFA805889828A83E0A3F208DFFA804CBD
:1008500080D280FA80C680D4806980F28033801094
:1008600080A680EA809A80A880DA80E280CA8033FD
:1008700089828A83ECFAE493A3C8C582C8CCC58375
:10088000CCF0A3C8C582C8CCC583CCDFE9DEE78045
:100890000D89828A83E493A3F608DFF9ECFAA9F0C4
:1008A000EDFB2289828A83ECFAE0A3C8C582C8CC1A
:1008B000C583CCF0A3C8C582C8CCC583CCDFEADE33
:1008C000E880DB89828A83E493A3F208DFF980CC95
:1008D00088F0EF60010E4E60C388F0ED2402B4048E
:1008E0000050B9F582EB2402B4040050AF23234535
:0608F00082239008507302
:1008F600BC000BBE0029EF8DF084FFADF022E4CCE6
:10090600F875F008EF2FFFEE33FEEC33FCEE9DECAE
:10091600984005FCEE9DFE0FD5F0E9E4CEFD22EDF4
:10092600F8F5F0EE8420D21CFEADF075F008EF2F3E
:10093600FFED33FD4007985006D5F0F222C398FD2F
:050946000FD5F0EA22CC
:00000001FF
