:1008E200416E7361726900496D6D6F7274616C0063
:0B08F2004C75666679005A6F726F004B
:100800007F3812090C7F0C12090C7F1012090C7F23
:100810000112090C7F0612090C7F8012090C7FC09F
:1008200012090C7A0879E27D061208797F01120913
:100830000C7FC012090C7A0879E97D081208797FCB
:100840000112090C7FC012090C7BFF7A0879F27D36
:10085000057C0012087D7F0112090C7FC012090C73
:100860007BFF7A0879F87D047C0012087D7F0112F5
:09087000090C7FC012090C80AADA
:040879007BFF7C0085
:0A087D008B088A09890A8C0B8D0C88
:10088700E4F50DF50EC3E50E950CE50D950B501D22
:10089700AB08AA09A90A850E82850D831208B5FF40
:0D08A70012091A050EE50E70DC050D80D853
:0108B4002221
:0E090C008FB0C2A0C2A1D2A21208FDC2A222C8
:0E091A008FB0D2A0C2A1D2A21208FDC2A222AA
:0E08FD00E4FFFE0FBF00010EBE75F8BF30F520
:01090B0022C9
:03000000020928CA
:0C092800787FE4F6D8FD75810E0208000F
:1008B500BB010CE58229F582E5833AF583E02250F8
:1008C50006E92582F8E622BBFE06E92582F8E22242
:0D08D500E58229F582E5833AF583E493225C
:00000001FF
