:0A09CC003F065B4F666D7D077F6FED
:10094B0078087C007D007BFF7A0979CC7E007F0ADA
:10095B001208D0E4F512F513AE12AF137C007D0A2A
:10096B001208F68C148D15D2A0C2A174082515F8A7
:10097B00E6F5B01209B1AE12AF137C007D0A120876
:10098B00F68E148F15C2A0D2A174082FF8E6F5B01D
:10099B001209B10513E51370020512C39464E51235
:0609AB00940040B480AD91
:0E09B100E4FFFE0FBF00010EBE4EF8BF20F5A2
:0109BF002215
:030000000209C032
:0C09C000787FE4F6D8FD75811502094B24
:10080000E709F608DFFA8046E709F208DFFA803EDA
:1008100088828C83E709F0A3DFFA8032E309F608C7
:10082000DFFA8078E309F208DFFA807088828C832F
:10083000E309F0A3DFFA806489828A83E0A3F608E3
:10084000DFFA805889828A83E0A3F208DFFA804CBD
:1008500080D280FA80C680D4806980F28033801094
:1008600080A680EA809A80A880DA80E280CA8033FD
:1008700089828A83ECFAE493A3C8C582C8CCC58375
:10088000CCF0A3C8C582C8CCC583CCDFE9DEE78045
:100890000D89828A83E493A3F608DFF9ECFAA9F0C4
:1008A000EDFB2289828A83ECFAE0A3C8C582C8CC1A
:1008B000C583CCF0A3C8C582C8CCC583CCDFEADE33
:1008C000E880DB89828A83E493A3F208DFF980CC95
:1008D00088F0EF60010E4E60C388F0ED2402B4048E
:1008E0000050B9F582EB2402B4040050AF23234535
:0608F00082239008507302
:1008F600BC000BBE0029EF8DF084FFADF022E4CCE6
:10090600F875F008EF2FFFEE33FEEC33FCEE9DECAE
:10091600984005FCEE9DFE0FD5F0E9E4CEFD22EDF4
:10092600F8F5F0EE8420D21CFEADF075F008EF2F3E
:10093600FFED33FD4007985006D5F0F222C398FD2F
:050946000FD5F0EA22CC
:00000001FF
