:100800007F381209357F0C1209357F101209357FA8
:10081000011209357F061209357F801209357FC024
:10082000120935D297D296D295D294C293C292C26F
:1008300091C2902094031208522095031208872039
:1008400096031208BC2097031208F17F0C12093599
:0208500080D155
:10085200D293D292D291D290C297C296C295C294AA
:100862002090057F371209432091057F34120943F6
:100872002092057F311209432093057F0112093529
:050882007F0C020935A6
:10088700D293D292D291D290C297C296C295C29475
:100897002090057F381209432091057F35120943BF
:1008A7002092057F321209432093057F30120943B6
:0508B7007F0C02093571
:1008BC00D293D292D291D290C297C296C295C29440
:1008CC002090057F391209432091057F3612094388
:1008DC002092057F331209432093057F3D12094373
:0508EC007F0C0209353C
:1008F100D293D292D291D290C297C296C295C2940B
:100901002090057F2F1209432091057F781209431A
:100911002092057F2D1209432093057F2B12094355
:050921007F0C02093506
:0E0935008FB0C2A0C2A1D2A2120926C2A22275
:0E0943008FB0D2A0C2A1D2A2120926C2A22257
:0E092600E4FFFE0FBF00010EBE61F8BFA8F592
:0109340022A0
:03000000020951A1
:0C095100787FE4F6D8FD758107020800ED
:00000001FF
