:1009D3004D31466F7277004D32526576004D314688
:1009E3006F72774D32526576004D31526576004D08
:1009F30031204D32466F7277004D31526576204D6E
:100A030032466F7277004D32466F7277004D312058
:0E0A13004D3252657600416C6C204F666600D5
:10097C00E4F580F590F5A0F5A0D2A2D2977F3812BD
:10098C000AA17F0C120AA17F10120AA17F01120A80
:10099C00A17F06120AA17F80120AA17FC0120AA1B0
:1009AC00D292D291D290C296C295C294C293209008
:1009BC0003120886209103120800209203120901E9
:0709CC007F0C120AA180D983
:10088600D296D295D294D293C292C291C29020931C
:1008960019758006D2A0120A8C7F01120AA17A0964
:1008A60079D3120A217FC0120AA120942575806689
:1008B600C2A0C2A1C2A3D2A4120A927F01120AA1A7
:1008C6007BFF7A0979DA7D057C00120A277FC01240
:1008D6000AA1209525758007D2A0C2A1C2A3D2A4E1
:1008E600120A927F01120AA17BFF7A0979E07D0B39
:0B08F6007C00120A277F0C120AA122CE
:10080000D296D295D294D293C292C291C2902093A2
:100810002175805BC2A0D2A1120A8E7F01120AA1AB
:100820007BFF7A0979EC7D057C00120A277F0C1288
:100830000AA120942875806DD2A0C2A1D2A3C2A41F
:10084000120A927F01120AA17BFF7A0979F27D09CF
:100850007C00120A277F0C120AA1120A9220952509
:1008600075807FC2A0D2A1D2A3C2A4120A927F0136
:10087000120AA17BFF7A0979FC7D0C7C00120A2701
:060880007F0C120AA12208
:10090100D296D295D294D293C292C291C2902093A0
:100911001F75804FC2A0C2A1D2A3C2A4120A927FA6
:1009210001120AA17A0A7909120A217F0C120AA17D
:1009310020942575807DC2A0D2A1C2A3D2A4120A9F
:10094100927F01120AA17BFF7A0A79107D087C004F
:10095100120A277F0C120AA120951F75806FC2A071
:10096100120A8C7F01120AA17BFF7A0A79197D078D
:0B0971007C00120A277F0C120AA12252
:060A21007BFF7D067C0056
:0A0A27008B088A09890A8C0B8D0CDC
:100A3100E4F50DF50EC3E50E950CE50D950B501D76
:100A4100AB08AA09A90A850E82850D83120A5FFFE8
:0D0A5100120AAF050EE50E70DC050D80D811
:010A5E002275
:0E0AA1008FB0C2A5C2A6D2A7120A92C2A72287
:0E0AAF008FB0D2A5C2A6D2A7120A92C2A72269
:060A8C00C2A1C2A3C2A436
:0E0A9200E4FFFE0FBF00010EBE4EF8BF20F5C0
:010AA0002233
:03000000020ABD34
:0C0ABD00787FE4F6D8FD75810E02097CFC
:100A5F00BB010CE58229F582E5833AF583E022504C
:100A6F0006E92582F8E622BBFE06E92582F8E22296
:0D0A7F00E58229F582E5833AF583E49322B0
:00000001FF
