:1009F30000080C04060203010900000C06030900A9
:060A0300000804020100DE
:1009AB00E4F590F5A0C293D292D291D2902090060A
:1009BB0012090C1209D92091061209411209D920EA
:0A09CB0092E31209761209D980DBCD
:04090C008E088F09B9
:10091000780A7C007D007BFF7A0979F37E007F0AEC
:100920001208D0E4F508F509740A25091209D5055D
:1009300009E50970020508C3940AE508940040E837
:010940002294
:040941008E088F0984
:10094500780A7C007D007BFF7A0979FD7E007F06B1
:100955001208D0E4F508F509740A25091209D50528
:1009650009E50970020508C39406E508940040E806
:01097500225F
:040976008E088F094F
:10097A00780A7C007D007BFF7A0A79037E007F0675
:10098A001208D0E4F508F509740A25091209D505F3
:10099A0009E50970020508C39406E508940040E8D1
:0109AA00222A
:0409D500F8E6F5A0AB
:1009D900900000AF82AE83E4FCFD7BB87A88F9F819
:0909E900D31208F64003A380EAD2
:0109F20022E2
:03000000020A09E8
:0C0A0900787FE4F6D8FD7581130209AB7C
:10080000E709F608DFFA8046E709F208DFFA803EDA
:1008100088828C83E709F0A3DFFA8032E309F608C7
:10082000DFFA8078E309F208DFFA807088828C832F
:10083000E309F0A3DFFA806489828A83E0A3F608E3
:10084000DFFA805889828A83E0A3F208DFFA804CBD
:1008500080D280FA80C680D4806980F28033801094
:1008600080A680EA809A80A880DA80E280CA8033FD
:1008700089828A83ECFAE493A3C8C582C8CCC58375
:10088000CCF0A3C8C582C8CCC583CCDFE9DEE78045
:100890000D89828A83E493A3F608DFF9ECFAA9F0C4
:1008A000EDFB2289828A83ECFAE0A3C8C582C8CC1A
:1008B000C583CCF0A3C8C582C8CCC583CCDFEADE33
:1008C000E880DB89828A83E493A3F208DFF980CC95
:1008D00088F0EF60010E4E60C388F0ED2402B4048E
:1008E0000050B9F582EB2402B4040050AF23234535
:0608F00082239008507302
:1008F600EB9FF5F0EA9E42F0E99D42F0EC6480C879
:0609060064809845F02218
:00000001FF
