:100A99003F065B4F666D7D077F6F3F065B4F666D57
:040AA9000000000049
:10094B00E4F590F5A0F5B0D2A2C2A1D2A3D2B0D259
:10095B00B3120A27C2A0C2A2D2A1D2A4C2A3120967
:10096B00C7D2A0D2A5C2A1C2A4C2A3120A27C2A2F7
:10097B00C2A5D2B1D2A4C2B01209C7D2B2C2A4C20C
:10098B00A1C2B1D2A3C2B0120A27C2B2C2A1D2B1C4
:10099B00D2B4C2B0C2B31209C7D2B5C2B1C2B4D2BB
:1009AB00A0D2A3D2B0120A27C2B5D2A1D2B4C2A090
:0C09BB00D2A3D2B01209C7120000808B3A
:100A270078087C007D007BFF7A0A79997E007F0A2F
:100A37001208D0E4F512F513AE12AF137C007D0A4D
:100A47001208F68C148D15D2B6C2B7740825151284
:100A57000A84AE12AF137C007D0A1208F68E148F3B
:100A670015C2B6D2B77408120A830513E5137002CC
:0B0A77000512C39415E512940040BD69
:010A82002251
:1009C70078087C007D007BFF7A0A79A37E007F0A86
:1009D7001208D0E4F512F513F512F513AE12AF13A2
:1009E7007C007D0A1208F68C148D15D2B6C2B77436
:1009F700082515120A84AE12AF137C007D0A12086F
:100A0700F68E148F15C2B6D2B77408120A8305136F
:0F0A1700E51370020512C39406E512940040BD6A
:010A260022AD
:050A83002FF8E6F590DC
:100A8800E4FFFE0FBF00010EE4B507F7EEB47DF3F7
:010A9800223B
:03000000020AAD44
:0C0AAD00787FE4F6D8FD75811502094B36
:10080000E709F608DFFA8046E709F208DFFA803EDA
:1008100088828C83E709F0A3DFFA8032E309F608C7
:10082000DFFA8078E309F208DFFA807088828C832F
:10083000E309F0A3DFFA806489828A83E0A3F608E3
:10084000DFFA805889828A83E0A3F208DFFA804CBD
:1008500080D280FA80C680D4806980F28033801094
:1008600080A680EA809A80A880DA80E280CA8033FD
:1008700089828A83ECFAE493A3C8C582C8CCC58375
:10088000CCF0A3C8C582C8CCC583CCDFE9DEE78045
:100890000D89828A83E493A3F608DFF9ECFAA9F0C4
:1008A000EDFB2289828A83ECFAE0A3C8C582C8CC1A
:1008B000C583CCF0A3C8C582C8CCC583CCDFEADE33
:1008C000E880DB89828A83E493A3F208DFF980CC95
:1008D00088F0EF60010E4E60C388F0ED2402B4048E
:1008E0000050B9F582EB2402B4040050AF23234535
:0608F00082239008507302
:1008F600BC000BBE0029EF8DF084FFADF022E4CCE6
:10090600F875F008EF2FFFEE33FEEC33FCEE9DECAE
:10091600984005FCEE9DFE0FD5F0E9E4CEFD22EDF4
:10092600F8F5F0EE8420D21CFEADF075F008EF2F3E
:10093600FFED33FD4007985006D5F0F222C398FD2F
:050946000FD5F0EA22CC
:00000001FF
